:020000040800F2
:1000000018A40020450100084D010008352600080D
:1000100051010008530100085501000800000000CC
:100020000000000000000000000000005701000870
:100030005901000800000000D9090008C162000849
:100040005F0100085F0100085F0100085F01000810
:100050005F0100085F0100085F0100085F01000800
:100060005F0100085F0100085F0100085F010008F0
:100070005F0100085F0100085F0100085F010008E0
:100080005F0100085F0100085F0100085F010008D0
:100090005F0100085F0100085F0100085F010008C0
:1000A0005F0100085F0100085F0100085F010008B0
:1000B000E163000821650008AD6600085F010008E3
:1000C0005F0100085F0100085F0100085F01000890
:1000D0005F0100085F010008996A0008C16A000812
:1000E0005F0100085F0100085F0100085F01000870
:1000F0005F0100085F0100085F0100085F01000860
:100100005F0100085F010008916700085F010008B7
:1001100089690008F16900085F0100085F010008B3
:100120005F0100085F0100085F0100085F0100082F
:10013000DFF80CD000F0CAFB004800474D7C0008F7
:1001400018A400200648804706480047FEE7FEE75F
:10015000FEE7FEE7FEE7FEE7FEE7FEE7FEE7FEE777
:10016000F16200083101000872B6704762B670474C
:10017000EFF3108072B6704780F31088704730BF7D
:10018000704720BF7047B0FA80F0704790FAA0F037
:10019000B0FA80F0704790FAA0F070472DE9F05F58
:1001A0000546002092469B468846064681464024E6
:1001B0001BE0284641464746224600F02FFA5346A8
:1001C0005A46C01A914110D311461846224600F0F3
:1001D00016FA2D1A67EB01084F462246012000212E
:1001E00000F00DFA17EB00094E41201EA4F10104A6
:1001F000DFDC484631462A464346BDE8F09F10B54D
:10020000431A934209D28318881803E010F8011D9D
:1002100003F8011D521EF9D210BD40EA01039B07ED
:1002200003D009E008C9121F08C0042AFAD203E06B
:1002300011F8013B00F8013B521EF9D210BDD2B2B9
:1002400001E000F8012B491EFBD270470022F6E7BF
:1002500010B513460A4604461946FFF7F0FF20463C
:1002600010BD30B505462A460B4612F8010B13F8AF
:10027000014B08B1A042F8D01CB1002802D06D1C7F
:10028000F1E7284630BD421C10F8011B0029FBD1C4
:10029000801A704730B504460020034600E05B1C1E
:1002A000934203D2E05CCD5C401BF8D030BD30B44B
:1002B00080EA010202F0004530F0004221F00040E7
:1002C00013D090B1C30DD40DC2F31601C0F31600C4
:1002D000E41A41F4000140F400027D34914201D35C
:1002E000641C00E04900002C02DA30BC002070479A
:1002F0004FF400000023914201D3891A03434008C0
:100300004FEA4101F7D151B1914202D14FF0004182
:1003100005E002D24FF0010101E06FF0010103EBB3
:10032000C450284430BC00F09BB92DE9FE4F8046F4
:1003300081EA0300C00F0C46009021F0004123F039
:100340000045B8EB0200A94105D24046214690463F
:100350001C460B46024623F00040104347D0270DB1
:10036000C7F30A00C3F30A510290401A01904028D3
:100370006BDAC3F3130040F4801B0098924620B15F
:100380000023D2EB030A63EB0B0B01985946C0F133
:100390004002504600F033F906460D465046594695
:1003A000019A00F04BF910EB08006141002487EA44
:1003B000115284EAE7731A4340D0009A62B3019A5B
:1003C000012A4FEA075215DC001B61EB02014FF0D6
:1003D000004202EA0752CDE90042001C41F58011BB
:1003E00032462B4600F082F903B0BDE8F08F40465C
:1003F0002146F9E7001B61EB0201001C41F5801367
:1004000000185B412018A2F5001747EB030140EAF2
:10041000D570B6196D4111E06D084FEA360645EA10
:10042000C0754FEA0752001B61EB0201001C41F549
:10043000801149084FEA30000019514132462B46DD
:1004400003B0BDE8F04F00F042B90098012240002F
:100450000023D0EB020263EBE073009821464FEAE1
:10046000E074B8EB000061EB0401E9E783F00043BE
:100470005BE781F0004158E72DE9F04D81EA030484
:1004800004F0004B21F0004514464FF0000A23F021
:10049000004150EA050220D054EA01021DD0C5F304
:1004A0000A570246C5F31303C1F31300C1F30A56FA
:1004B00040F4801543F48013A7EB0608101BD646C2
:1004C00008F2FD3873EB050002D308F1010801E0E2
:1004D00092185B41B8F1000F03DA00200146BDE835
:1004E000F08D00204FF48011064684460EE0171B65
:1004F00073EB050705D3121B63EB050306434CEAB8
:10050000010C49084FEA300092185B4150EA01079C
:10051000EDD152EA030012D082EA040083EA050119
:10052000084305D0101BAB4106D20122002306E090
:1005300000224FF0004302E06FF0010253101AEB6B
:1005400006004CEB085110EB0A0041EB0B01BDE833
:10055000F04D00F0BCB896230022114600F089B897
:100560000EB540F2334102910021CDE900110A4657
:100570000B4600F0BBF803B000BDC1F30A5210B542
:10058000C1F3130140F2FF3341F480119A4201DAC2
:10059000002010BD40F233439A42A2F2334203DC02
:1005A000524200F03BF810BD904010BD00F00042F8
:1005B00030F000400AD0C10D01F56071C0F31600A3
:1005C00042EA0151C208400711437047002001462A
:1005D000704730B50B46014600202022012409E077
:1005E00021FA02F59D4205D303FA02F5491B04FAEC
:1005F00002F52844151EA2F10102F1DC30BD202ACB
:1006000004DB203A00FA02F1002070479140C2F169
:10061000200320FA03F3194390407047202A04DB9B
:10062000203A21FA02F00021704721FA02F3D0406B
:10063000C2F120029140084319467047202A06DB88
:10064000CB17203A41FA02F043EAE07306E041FAA0
:1006500002F3D040C2F1200291400843194670478E
:100660000029A8BF7047401C490008BF20F00100C6
:10067000704710B4B0FA80FC00FA0CF050EA0104A4
:1006800004BF10BC704749B1CCF1200421FA04F436
:1006900011FA0CF118BF012121430843A3EB0C010F
:1006A000CB1D4FEA00614FEA102042BF002010BC72
:1006B000704700EBC35010440029A4BF10BC704722
:1006C000401C490008BF20F0010010BC704710B565
:1006D000141E73F1000408DA401C41F10001921865
:1006E0005B411A4301D120F0010010BD2DE9F04D0E
:1006F00092469B4611B1B1FA81F202E0B0FA80F263
:1007000020329046FFF77BFF04460F4640EA0A007E
:1007100041EA0B0153465A46084313D0114653EAA7
:10072000010019D0C8F140025046FFF777FF054697
:100730000E46504659464246FFF761FF084305D032
:10074000012004E020463946BDE8F08D0020054335
:1007500046EAE0762C4337430A986305E40AA0EBA7
:1007600008000022FD0A44EA47540A3002D500205E
:100770000146E9E7010510196941DDE9084500195D
:100780006941BDE8F04DA2E72DE9FE4F81EA03047F
:1007900004F0004421F0004100944FF0000B23F0DE
:1007A000004350EA01045ED052EA03045BD0C3F375
:1007B0000A54C1F30A552C44A4F2F3340194A0FB6B
:1007C0000254C1F3130141F48011C3F3130343F442
:1007D000801301FB024400FB034E840A970A44EA9B
:1007E000815447EA8357A4FB076802958D0A05FBED
:1007F00007854FEA932C04FB0C542705029D4FEA12
:10080000065847EA1637B5EB08056EEB070C870E5E
:10081000920E47EA811742EA8312A7FB0201B6EB68
:100820000B0164EB00042B0D43EA0C335E1844EB20
:100830001C50DA465146E7FB0201C5F313044FEAA8
:100840000B3343EA14534FEA0432019C43EA060394
:10085000A4F10C040294009CCDE900B4FFF746FF1C
:1008600003B0BDE8F08F00200146F9E7C1F30A525A
:10087000C1F3130140F2FF3341F480119A4202DACE
:1008800000200146704740F233439A42A2F23342BD
:1008900002DC5242FFF7C2BEFFF7B1BE30B5041E04
:1008A00071F1000404DB4FF00044404264EB0101AD
:1008B000141E73F1000405DB1C464FF00043524246
:1008C00063EB0403994208BF904230BD064C074DCC
:1008D00006E0E06840F0010394E807009847103410
:1008E000AC42F6D3FFF728FC7C7F00089C7F000811
:1008F00070B58C1810F8015B15F0070301D110F8E2
:10090000013B2A1106D110F8012B03E010F8016B0E
:1009100001F8016B5B1EF9D12B0705D40023521E91
:100920000DD401F8013BFAE710F8013BCB1A921CF9
:1009300003E013F8015B01F8015B521EF9D5A142F7
:10094000D8D3002070BD000072B64EF62250CEF211
:10095000000040F2FF01C0F2000101704FF0000002
:1009600080F3098803F0DAF940F26C20C2F200004B
:10097000016881F3088840F2F610C2F2000040F2EC
:10098000F711C2F200010A78027040F26425C2F247
:10099000000540F26821C2F200010A682A6010686E
:1009A00080F30988EFF3148040F0020080F314888C
:1009B000BFF36F8FBDE8F00F0FBCBDE8005006BC61
:1009C00062B6084718484FF08051016070471648DA
:1009D0004FF080510160704772B6EFF3098020E953
:1009E000F00F40F26425C2F200052E6830607446B4
:1009F00003F094F940F2F610C2F2000040F2F71151
:100A0000C2F200010A78027040F26821C2F20001CD
:100A10000A682A6044F0F40E1068B0E8F00F80F322
:100A2000098862B67047000004ED00E084B000F071
:100A30009FFF00250DF1080401F05AFA0022CDE9CC
:100A400000543C231146104603F0DCF9F4E70000A3
:100A500084B007A006F08AF9002502AC0022CDE997
:100A60000054C8231146104603F0CCF9F6E7000005
:100A7000454D515F436F6E6E6563740D0A00000053
:100A8000002584B002ACCDE900542B460A22294649
:100A9000284603F0B7F900F031FC0023CDE90054FB
:100AA00002221946184603F0ADF900BF06F036F9E8
:100AB0000022CDE900543C231146104603F0A2F970
:100AC000F4E700008AB000F067F900F0DDFA09A849
:100AD00002F0C4FE00F032FB002509AC03260595A8
:100AE00006952348CDE90764016B0096CDE9010125
:100AF0008027CDE903752B461E4A1FA1A0F588600B
:100B000002F012FF059506952148CDE90764016BB7
:100B10000023CDE9010104200090CDE903751D4AB1
:100B20001DA1224802F000FF059506952048CDE959
:100B30000764016B0023CDE9010105200090CDE998
:100B400003751C4A1CA1214802F0EEFE02F024F9B4
:100B500009A91E4803F0D6F804F09AFD0022CDE959
:100B600000541E231146104603F04CF9F4E7000030
:100B7000780700202D0A0008417070205461736BC3
:100B800020436F6C6C656374696F6E205443420040
:100B900078090020810A0008417070205461736B4D
:100BA0002053656E6420544342000000F803002087
:100BB000780B0020510A0008417070205461736B5B
:100BC000204745543120544342000000B80400201F
:100BD0007047000010B5FFF7CBFA044600F0D4FAD6
:100BE0000E4A0D49134811600E4A0D4911600F4A13
:100BF0000D4911600E49016010490F480860114904
:100C00000F48086011491048086000F0CDFA2046EE
:100C1000BDE81040FFF7B0BA530C0008B401002043
:100C2000550C0008B8010020570C0008BC0100203A
:100C3000D10B0008C0010020510C0008C4010020A5
:100C4000590C0008C80100205B0C0008CC010020F2
:100C500070477047704770477047704700B585B060
:100C6000684604F071FE019805B000BDF8B5012199
:100C70006D2004F05DFE0121284801F0A5FC4FF431
:100C80000040ADF8000003248DF8024010258DF8D7
:100C900003506946224801F039FC2248016821F4DA
:100CA000004101604015ADF800008DF802408DF85C
:100CB000035069461C4801F029FC1C48016821F4D6
:100CC000007101600120ADF80000194F8DF802405D
:100CD0008DF803506946384601F018FC154E30680F
:100CE00040F0010030600820ADF800008DF80240AF
:100CF0008DF803506946384601F008FC306820F052
:100D0000080030604FF47040ADF8000048208DF8C6
:100D100003006946084801F0F9FBF8BD0002300005
:100D2000000801400C080140001401400C1401406F
:100D3000001801400C180140000C01402DE9F04161
:100D40001048134C104E0078104D218840B128886F
:100D5000002808BFBDE8F08128887054481C0EE0C8
:100D60000C4F19B90121384605F089FD28882188E2
:100D700070540021384605F09EFD2088401C2080DC
:100D8000BDE8F0811000002074740020044400408D
:100D9000E40000200004004035480078002808BF27
:100DA00070472DE9F04100F031F900F0F1F83149D8
:100DB00040F61460304D0860304800242C70046008
:100DC00044608460C46004614461FFF74FFF00F039
:100DD00069F801F0E3FC04F0F3FB294908684FF0DF
:100DE000050310F4004F05F101004FF0010713D087
:100DF0000A684FF0020612F4804F4FF0040213D03D
:100E0000D1F800C01CF4005F4FF0030C1DD009683E
:100E100011F4805F23D010E0037044708470C470BC
:100E200004712F7017A006E0027043708470C470C4
:100E300004712E7015A005F099FF00F0E7FF00F097
:100E400029FABDE8F04104F083BB80F800C042708D
:100E50008370C470047185F800C00EA0EBE70770C2
:100E6000467080F802C0C27003712A700BA0E2E7DE
:100E7000DC0100203000002000000020780D002060
:100E8000080C01404D6F6465310D0A004D6F6465BB
:100E9000320D0A004D6F6465330D0A004D6F6465B5
:100EA000340D0A0070B53148314986B000244480C1
:100EB0000C800470447080212E48FFF7C7F94FF46E
:100EC00080712D48FFF7C2F90121312004F030FD77
:100ED0000121080504F020FD0420ADF810008DF874
:100EE000130004A9254801F011FB4FF48050ADF820
:100EF000100003258DF8125018208DF8130004A956
:100F00001F4801F003FB4FF4E1300090ADF80840BA
:100F10000C201C4EADF80440ADF80A00ADF80640B8
:100F2000ADF80C406946304605F054FE012240F20F
:100F30002551304605F036FE0121304605F0FCFD16
:100F40004021304605F0EEFD680201F0E7FF352054
:100F50008DF800008DF801408DF8025001208DF8C9
:100F60000300684601F0A0FF06B070BD0600002037
:100F7000AE00002058100020900D00200014014009
:100F80000010014000500040FFF7EEB8FEE70000FF
:100F90002DE9F0410A4E00240A4D522C0BD2FFF7E6
:100FA000E7F8074600F0F0F846F8245000F0FCF8A7
:100FB0003846FFF7E1F8641C522CEDD3BDE8F08110
:100FC000900E00208D0F000800B542F2107183B022
:100FD000814217D3B0F57A7F3CBF83B2002208D399
:100FE0004FF47A71B0FBF1F293B2B0FBF1F201FB76
:100FF000120202A90020CDE90001014602F002FF21
:1010000003B000BD42F21070EAE7000000B585B001
:10101000684604F099FC0C4901980968B0FBF1F0AE
:10102000B0F1807F0FD220F07F40411E4FF0E020D2
:101030004161064AF02182F8141D002181610721D7
:10104000016105B000BDFEE7007E00080FE000E092
:1010500010B54FF480710348FFF7F8F802490020FB
:10106000088010BDF8840020E600002010B5802123
:101070000348FFF7EBF803490020088010BD00008B
:1010800058100020AE0000202DE9F041294C002727
:10109000676000F0E1F827806780A760E76067611C
:1010A000A76100262761FFF763F880460025676186
:1010B0002088401C2080608810B900F0E5F8A0600E
:1010C00060880004000C60800AD100F0DDF8E06068
:1010D000A168411A6069884227D3A069884226D353
:1010E00060690644681C05042D0CE0D0C4E904675F
:1010F0004046A761FFF740F8FFF73AF80546208819
:10110000401C2080608810B900F0BEF8A0606088A4
:101110001021401C6080084801F08CFB00F044F86E
:101120002846BDE8F041FFF727B86161D5E7A16126
:10113000D6E7000090010020D487002070B5FFF7AB
:1011400017F8084D6C69FFF717F8286984428CBFBF
:10115000241A0024FFF70CF800216961FFF70CF84E
:10116000204670BD9001002070B5FFF701F8054DD5
:10117000AC69FFF701F8286984428CBF201A00206F
:1011800070BD00009001002010B5064C2088401C66
:101190002080608810B900F077F8A0606088401C5B
:1011A000608010BD9001002010B50C4C6088401E7E
:1011B0000004000C608018BF10BD00F065F8E0600E
:1011C000A168401A6169814203D3A169814202D3B7
:1011D00010BD6061F9E7A06110BD00009001002022
:1011E0002DE9F0410C00064617D0002E02BF0A2060
:1011F0000880BDE8F081102105F022F8102828BFF2
:101200004FF47A701BD2FEF7B3FF0E4D07462888C5
:10121000401C2880688820B900E0FEE700F034F820
:10122000A86068881022401C68803146064804F097
:10123000E3FFFFF7B9FF3846FEF79EFF002020804E
:10124000BDE8F08190010020D4870020014948606A
:10125000704700009001002010B5FFF7FFFC08491F
:101260000A6842F080720A60064900224A600A68F1
:1012700042F001020A60BDE81040FFF7E7BF00003E
:10128000FCED00E0001000E00148406870470000FD
:10129000001000E000B510A085B0D0E90010CDE945
:1012A00000100FA1D1E90001CDE902010621684635
:1012B00005F0F2FC4FF4967006F0ECF902A801F08C
:1012C0000DF9002804BF05B000BDFFF7C1FE06A060
:1012D00005F04CFD05B000BD11030C011EC100005E
:1012E00016020C01DB000000B9D8B1D5B2E2C1BFD3
:1012F000B3C9B9A6A3A10D0A0000000000B589B0CA
:1013000000200090019002900390049005900690B8
:101310000790094809A10268684605F037FD0A48A8
:101320000AA1027804A805F031FD04A9684604F07A
:101330000BFF09B000BD000030000020B1E0BAC5CD
:101340003A20252D3464000000000020C4A3CABD4B
:101350003A20252D3664000010B50179062928BFF2
:1013600010BDDFE801F003080D12171C0EA005F0F8
:10137000FDFC002010BD12A005F0F8FC012010BDFE
:1013800017A005F0F3FC022010BD1EA005F0EEFC36
:10139000032010BD22A005F0E9FC042010BD29A007
:1013A00005F0E4FC052010BDC1ACBDD34D51545433
:1013B000B7FECEF1C6F7B3C9B9A60D0A000000000A
:1013C000C1ACBDD3D2D1BEDCBEF8A3ACB2BBD6A7F4
:1013D000B3D6B5C4D0ADD2E9B0E6B1BE0D0A0000B7
:1013E000C1ACBDD3D2D1BEDCBEF8A3ACB2BBBACFC8
:1013F000B8F1B5C4BFCDBBA7B6CBB1EACAB6B7FB8F
:101400000D0A0000C1ACBDD3D2D1BEDCBEF8A3AC86
:10141000B7FECEF1B6CBB2BBBFC9D3C30D0A000035
:10142000C1ACBDD3D2D1BEDCBEF8A3ACCEDED0A75A
:10143000B5C4D3C3BBA7C3FBBBF2C3DCC2EB0D0A6D
:1014400000000000C1ACBDD3D2D1BEDCBEF8A3AC5D
:10145000CEB4CADAC8A80D0A000000002DE9F04198
:10146000384C8EB06068FEF70EFF00F112061020B7
:101470008DF8000006F10A008DF801000027042015
:101480008DF802704D218DF803008DF804108DF851
:1014900008005121C2208DF805108DF80900542153
:1014A0008DF806108DF80A703C208DF807108DF825
:1014B0000B006068FEF7E7FE000A8DF80C0060681C
:1014C000FEF7E1FE8DF80D006068FEF7DCFE0246D7
:1014D0006D460DF10E006168FEF791FE6068FEF743
:1014E000D2FE284487736068FEF7CDFE28444FF093
:1014F000060880F80F806068FEF7C5FE12A1284438
:101500000A680261898881826068FEF7BCFE28440F
:1015100087756068FEF7B7FE284480F8178060681A
:10152000FEF7B1FE0AA128440A6882618988818396
:1015300006F10C00C1B2684605F00EFA0EB00020AC
:10154000BDE8F081B0000020323137353737000078
:101550006B6662736B64000070B504460678C078F1
:1015600021799AB001EB002085B22A46611D6846B8
:10157000FEF745FE6019761B411D321F0DA8FEF7D0
:101580003EFE134C2068FEF77EFE02466846216848
:10159000FEF780FE00281EBF01201AB070BD0DA905
:1015A0000C4C301FC5B2206A2A46401CFEF727FEAD
:1015B000206A002142190570517032302062A16A00
:1015C000884204BF0448206200201AB070BD0000A9
:1015D00014000020B0000020F85E0020DFF868C092
:1015E00010B40120ACF800001848CCF80800CCF882
:1015F0000C001748CCF810003230CCF81400CCF8AE
:1016000018001448CCF81C003230CCF82000CCF87C
:10161000240000F6921000213122CCF8280032304C
:10162000C1EB011300EB83043C34491C521E40F80B
:10163000234012F0FF02F3D10021C0F87C1BCCE95B
:101640000B0110BC70470000B0000020D810002033
:10165000B6370020C65E002008B504A0022100684D
:101660000090684605F078F908BD0000C000000051
:101670008078002818BF0120704700002DE9F04352
:10168000B3B00E46070039D0002E3ED0FEF7FBFD6A
:10169000841C3046FEF7F7FD054630208DF800002B
:1016A00060198DF801003846FEF7EDFD000A8DF84F
:1016B00002003846FEF7E7FD8DF803003846FEF7D6
:1016C000E2FD02463946E84601A8FEF798FD30469D
:1016D000FEF7D9FD81463846FEF7D5FD40444A461F
:1016E0003146001DFEF78BFDA01C2844C1B26846A0
:1016F00005F032F933B00020BDE8F08306A005F014
:1017000035FB33B00120BDE8F0830AA005F02EFBC5
:1017100033B00220BDE8F083746F706963C3FBB31C
:10172000C6B4EDCEF3A3ACB2BBC4DCCEAABFD50D1C
:101730000A000000CAFDBEDDB4EDCEF3A3ACB2BB1F
:10174000C4DCCEAABFD50D0A0000000070B5044667
:10175000407960B1012808BF18A00CD0022808BF4A
:101760001CA008D0802800D039B1012070BD1FA076
:1017700005F0FCFA01E005F0F9FA224AE078217957
:10178000136B01EB002080B2002B0ABF02201C4625
:1017900070BD218F81420AD19C4219BF2068286008
:1017A00018681063D06A20600021D46204E02546E6
:1017B00024680321002CECD1084670BDB6A9D4C41E
:1017C000746F706963B3C9B9A6A3ACB5C8BCB631B0
:1017D0000D0A0000B6A9D4C4746F706963B3C9B9A7
:1017E000A6A3ACB5C8BCB6320D0A0000B6A9D4C4D5
:1017F000746F706963B3C9B9A6A3ACB5C8BCB63081
:101800000D0A0000B00000202DE9F0418EB00D005F
:1018100007461CBF012D022D06D02EA005F0A6FA0A
:101820000EB00120BDE8F081FEF72DFDC01C86B290
:1018300082208DF800002F4CB01C8DF8010020880C
:10184000010A8DF802108DF803003846FEF71BFDE3
:10185000000A8DF804003846FEF715FD8DF80500E6
:101860003846FEF710FD02463946E8460DF10600FF
:10187000FEF7C5FC3846FEF706FD40448571E06A78
:10188000002802BF02200EB0BDE8F081321D69467B
:10189000001DFEF7B4FCE06A2288311D0287521C4D
:1018A00092B2C186A2F57F432280FF3B04BF012292
:1018B00022800268E262236B0022002B0CBF2063AF
:1018C0001860C9B20260684605F046F80EB0002004
:1018D000BDE8F081535542534352494245B1A8CE29
:1018E000C4B6A9D4C4B7FECEF1B5C8BCB6B4EDCE6B
:1018F000F30D0A00B000002010B58EB0002000905B
:1019000001900290194C0390049005900690079066
:10191000089009900A900B900C90A06904F0FEFAD0
:10192000A4692046FEF7AFFC01466846002C18BFAC
:10193000002912DD22781209092ACCBF3732303251
:10194000027014F8012B02F00F02092ACCBF3732C3
:1019500030324270801C491EECD16846FEF793FC81
:101960000146684605F0C4F90EB010BDB000002075
:10197000F8B5052540F6FF7445F2555000F0A0FE7D
:10198000284600F091FE204600F094FE00F084FE10
:1019900000F07AFE79A005F0E9F9804C01270026D5
:1019A00027716671012004F087FA50B16079401CFC
:1019B000C0B260710328F5D379A005F0D7F90A25E4
:1019C0000FE07CA005F0D2F960790328F7D3F3E7A4
:1019D000681EC5B24FF4FA7005F05CFE79A005F000
:1019E000C5F94FF4487004F09FF8002818BF002D87
:1019F000EED1642005F04EFE00F04EFE74A005F01E
:101A0000B5F94FF4487004F04DF840B173A005F0FB
:101A1000ADF94FF4FA7005F03DFEFFF7A9FF78A08D
:101A200005F0A4F932217BA004F00AFA40B17BA0B2
:101A300005F09CF94FF4FA7005F02CFEFFF798FFC3
:101A40007DA005F093F932217FA004F0F9F940B1AF
:101A500081A005F08BF94FF4FA7005F01BFEFFF73B
:101A600087FF86A005F082F932218AA004F0E8F908
:101A700040B18BA005F07AF94FF4FA7005F00AFE38
:101A8000FFF776FF8DA005F071F932218FA004F0E9
:101A9000D7F940B191A005F069F94FF4FA7005F05B
:101AA000F9FDFFF765FF95A005F060F9322199A0D7
:101AB00004F0C6F940B19BA005F058F94FF4FA7054
:101AC00005F0E8FDFFF754FF9EA005F04FF9C82090
:101AD00005F0E0FD322004F07DF86071062828BF93
:101AE000F8BDDFE800F00319232D37419AA005F077
:101AF0003DF904F0A5FD9D482671802106809C4893
:101B0000FEF7A4FBFFF76AFD2770FFF7A7FC694605
:101B1000984802F0F7F8F8BD97A005F027F94FF4C0
:101B2000FA7005F0B7FDFFF723FFF8BD9AA005F0A6
:101B30001DF94FF4FA7005F0ADFDFFF719FFF8BD80
:101B40009CA005F013F94FF4FA7005F0A3FDFFF720
:101B50000FFFF8BD9FA005F009F94FF4FA7005F0EA
:101B600099FDFFF705FFF8BDA1A005F0FFF84FF4C0
:101B7000FA7005F08FFDFFF7FBFEF8BD0D0AC4BF3C
:101B8000C7B0B4A6D3DAB9D8BBFAD7B4CCACA3AC3F
:101B9000D7BCB1B8BFAABBFA0D0A00000C000020E8
:101BA000B4A6D3DAB7C7D6B8C1EED7B4CCAC0D0A59
:101BB00000000000B4A6D3DAD6B8C1EED7B4CCACDE
:101BC0000D0A0000435351D6B5B9FDB5CD0D0A003D
:101BD000435351D5FDB3A30D0A000000B2E9D1AFC4
:101BE000CDF8C2E7D0C5BAC5A3ACB3ACCAB1CAA7D9
:101BF000B0DCA3ACD7BCB1B8D6D8C6F40D0A00008F
:101C0000B2E9D1AFB5BDCDF8C2E7D0C5BAC50D0AAE
:101C1000000000004154453000000000B9D8B1D5A3
:101C2000BBD8CFD4CAA7B0DCA3ACD7BCB1B8D6D888
:101C3000C6F40D0A00000000B9D8B1D5BBD8CFD486
:101C4000B3C9B9A60D0A000041542B47534D425564
:101C500053593D3100000000C9E8D6C3BDFBD6B9D9
:101C6000B5E7BBB0BAF4C8EBCAA7B0DCA3ACD7BC2D
:101C7000B1B8D6D8C6F40D0A00000000C9E8D6C332
:101C8000BDFBD6B9B5E7BBB0BAF4C8EBB3C9B9A6CA
:101C90000D0A000041542B4349505348555400004D
:101CA000B9D8B1D5B3A1BEB0CAA7B0DCA3ACD7BC7C
:101CB000B1B8D6D8C6F40D0A00000000B9D8B1D525
:101CC000B3A1BEB0B3C9B9A60D0A000041542B435D
:101CD00049504D4F44453D3000000000C9E8D6C38F
:101CE000B5A5C1B4BDD3C4A3CABDCAA7B0DCA3AC5B
:101CF000D7BCB1B8D6D8C6F40D0A0000C9E8D6C31F
:101D0000B5A5C1B4BDD3C4A3CABDB3C9B9A60D0A94
:101D10000000000041542B4349504D4F44453D3194
:101D200000000000C9E8D6C3CDB8B4ABC4A3CABD97
:101D3000CAA7B0DCA3ACD7BCB1B8D6D8C6F40D0ADC
:101D400000000000C9E8D6C3CDB8B4ABC4A3CABD77
:101D5000B3C9B9A60D0A00000D0AC1ACBDD3B7FEC8
:101D6000CEF1C6F7B3C9B9A60D0A0000E400002001
:101D700074740020B8040020B2E9D1AFB8BDD7C553
:101D800047505253B3ACCAB1A3ACD7BCB1B8D6D844
:101D9000C6F40D0A00000000BFAACABCC8CECEF12E
:101DA000B3ACCAB1A3ACD7BCB1B8D6D8C6F40D0A8F
:101DB00000000000BDA8C1A247505253C1ACBDD322
:101DC000B3ACCAB1A3ACD7BCB1B8D6D8C6F40D0A6F
:101DD00000000000BBF1C8A14950B5D8D6B7B3ACDC
:101DE000CAB1A3ACD7BCB1B8D6D8C6F40D0A0000AE
:101DF000C1ACBDD3B7FECEF1C6F7B3ACCAB1A3AC8C
:101E0000D7BCB1B8D6D8C6F40D0A000010B58EB054
:101E100002222E492E4804F0F1F82C48A0F1340497
:101E200002686262B2F5801F24BF2A4860622A49B4
:101E3000684604F0ABFF6846FEF725FA014668469F
:101E400004F040FF00200090019002900390049065
:101E5000059006900790089009900A900B900C90BE
:101E60001EA11F48626A04F091FF1D48A060022174
:101E70001CA004F027FFA068FEF705FA0146A06841
:101E800004F020FF1849A0680860606A012100EB97
:101E9000800001EB400211A11448A26204F076FF19
:101EA0001248E06002210FA004F00CFFE068FEF78A
:101EB000EAF90146E06804F005FF04F04DF80EB0C1
:101EC0004FF4E130BDE8104003F094BD4000002025
:101ED000000002084A870100BC7D0008256400005C
:101EE000480000200D0A0000B40000207A00002005
:101EF0002DE9F047C34D8EB0287801281CBF0EB0E5
:101F0000BDE8F087C04CC14920680968884216D0F6
:101F1000BFA004F02BFFFFF7EFFC2068BF49323071
:101F200020600968884208BFBD4800D12060A878B9
:101F3000002818BF00F0B0FB0EB0BDE8F087B94F25
:101F4000B949BA4E38680968DFF8E482DFF8E492EC
:101F50004FF0010A884200F0B68041780024202921
:101F600014D0302935D0D0293BD0902918BFB2A049
:101F70004BD000BF04F0FAFE3868B2493230386006
:101F80000968884208BFC7F80090D0E7FFF7E4F976
:101F900058B1ADA004F0EAFE306800F4E06040EA19
:101FA00008003060BFF3408FFEE7AFA004F0DEFE14
:101FB0000021A868FFF728FC00281CBFAFA004F090
:101FC000D5FE6C7004F0A6FB04F01EFC04F06CFA65
:101FD000D2E7FFF7C1FA00281CBFB0A004F0C6FE8C
:101FE000CAE7FFF745FB002818BFB3A0C2D1BAA0CB
:101FF00004F0BCFE6C70BC4C0021204604F03FFC99
:102000000021204604F057FCB6E7FFF79FFB6871FC
:10201000A8B1012837D0022845D00328ACD1B3A0FD
:1020200004F0A4FE4FF4FA7005F034FB306800F4BD
:10203000E06040EA08003060BFF3408FFEE7012116
:1020400085F802A0880704F01AFCAEA1684604F0E7
:102050009DFE6846FEF717F90146684604F032FE19
:10206000AC48016841F4007101600094019402944D
:1020700003940494059406940794089409940A948C
:102080000B940C9478E7A4A004F070FE4FF4FA705F
:1020900005F000FB306800F4E06040EA08003060C2
:1020A000BFF3408FFEE791A004F060FE4FF4FA709A
:1020B00005F0F0FA306800F4E06040EA08003060B3
:1020C000BFF3408FFEE79B4C9B492068096888421C
:1020D0003FF42DAF411C99A004F048FE2869FEF79B
:1020E000D2F8024620682969401CFEF7D3F8C0B335
:1020F0006869FEF7C8F8024620686969401CFEF767
:10210000C9F878B3A869FEF7BEF802462068A96945
:10211000401CFEF7BFF8002847D0E869FEF7B3F887
:1021200002462068E969401CFEF7B4F800284ED04A
:10213000286AFEF7A8F802462068296A401CFEF7C4
:10214000A9F800284BD081A0C7F8009004F00EFE3B
:10215000306800F4E06040EA08003060BFF3408F70
:10216000FEE700E00FE07EA004F000FE8021804842
:10217000FEF76CF87FA17E4804F008FE7C49E86811
:10218000FFF77CFA32E07CA004F0F0FD8021784873
:10219000FEF75CF87CA1764804F0F8FD7449E86825
:1021A000FFF76CFA0220E87020E079A004F0DEFD71
:1021B00080216F48FEF74AF879A16D4804F0E6FDEA
:1021C0006B49E868FFF75AFA85F803A00EE076A09D
:1021D00004F0CCFD77A1E868FFF750FA06E077A09D
:1021E00004F0C4FD78A1E868FFF748FA2068784950
:1021F000323020600968884208BF76487FF497AE85
:1022000094E600000C000020C8000020C40000205C
:10221000B7A2CBCDCAFDBEDD0D0A0000CC00002068
:10222000E8370020BC000020B80000200CED00E0E2
:102230000400FA05D8100020CEB4D6AAB1A8CEC4A6
:102240000D0A0000C0000020434F4E4E454354B7D6
:10225000FECEF1C6F7CAA7B0DCA3ACD7BCB1B8D6E6
:10226000D8C6F40D0A000000434F4E4E454354B704
:10227000FECEF1C6F7B3C9B9A60D0A0053554253B5
:102280004352494245B6A9D4C4746F706963B1A87A
:10229000CEC4B4EDCEF30D0A00000000B7C7BFD81E
:1022A000D6C6B6CBB1A8CEC4A3ACB6AAC6FACAFDF0
:1022B000BEDD0D0A0000000070696E67CFECD3A68A
:1022C000B4EDCEF3A3ACD7BCB1B8D6D8C6F4CDF834
:1022D000C2E70D0A00000000CAD5B5BD70696E677F
:1022E000CFECD3A60D0A0000000C0040BBD8B8B458
:1022F000B4EDCEF3A3ACD7BCB1B8D6D8C6F40D0AB2
:1023000000000000B6A9D4C4746F706963B3C9B982
:10231000A60D0A000C140140B6A9D4C4746F7069EC
:1023200063CAA7B0DCA3ACD7BCB1B8D6D8C6F40D8D
:102330000A000000D4000020D0000020B4A6C0EDA8
:10234000C3FCC1EE3A25730D0A000000CEB4D6AA34
:10235000C3FCC1EED7BCB1B8D6D8C6F40D0A000094
:10236000CAD5B5BDB2E9D1AFD6B8C1EE0D0A0000ED
:10237000D80F00206F6B0000CAD5B5BDB9D8BBFA25
:10238000D6B8C1EE0D0A0000636C6F7365000000E3
:10239000CAD5B5BDBFAABBFAD6B8C1EE0D0A0000BA
:1023A0006F70656E00000000B5E3C1C144320D0AD4
:1023B000000000002B5357313A310000CFA8C3F082
:1023C00044320D0A000000002B5357313A30000010
:1023D000D8000020F85E002030B505464FF43020CC
:1023E00000F04AF8042818BF30BD0A4C206940F0BC
:1023F000020020616561206940F0400020614FF4D7
:10240000302000F039F8216941F6FD721140216158
:1024100030BD0000002002400248016941F0800107
:10242000016170470020024070B506460D464FF42A
:10243000005000F021F8042818BF70BD074C206937
:1024400040F00100206135804FF4005000F014F896
:10245000216941F6FE721140216170BD00200240E9
:1024600003480249416003494160704723016745C1
:1024700000200240AB89EFCD174902460420CB680B
:1024800013F0010F25D1CB6813F0040F18BF022001
:102490001AD1C96811F0100F18BF032014E0CB68DF
:1024A000042013F0010F18BF01200AD1CB6813F0EC
:1024B000040F18BF022004D1CB6813F0100F18BF0F
:1024C0000320521E012804D0002A18BF704705209F
:1024D0007047002AE3D1FAE70020024010B5014618
:1024E0000348FDF7BEFE002818BF012010BD000004
:1024F000F884002010B501460348FDF7B2FE00281D
:1025000018BF012010BD0000581000202DE9F00375
:10251000CB7803F00F0213F0100F1CBF8B781A4317
:102520000B784FF00F0713F0FF0F4FF001081FD08B
:10253000046800235FF008050E8808FA03FC3CEAF3
:10254000060611D19E0007FA06F924EA090402FAE8
:1025500006F63443CE78282E08BFC0F814C003D046
:10256000482E08BFC0F810C05B1C6D1EE4D104608B
:102570000B88FF2B9CBFBDE8F003704744684FF009
:10258000000C08250CF108030E8808FA03F333EA5F
:10259000060607D06D1E0CF1010CF3D14460BDE8B6
:1025A000F00370474FEA8C0607FA06F924EA09049B
:1025B00002FA06F63443CE78282E08BF4361CE785F
:1025C000482E08BF0361E5E770B4194A10F0004FC8
:1025D00014BFD3695368C0F303444FF4401C3CEA72
:1025E00000054FEA505C4FEA0C1C86B206FA0CFC60
:1025F00016D010F4801F08BF23EA0C0303D0032574
:1026000005FA04F4A34343F07063002918BF4CEAB1
:10261000030310F0004F14BFD361536070BC7047C8
:10262000546823F0706324F070645460EDE7000098
:10263000000001400FF2380C124A00214FF6FF74DF
:102640001CF901009080108810F0400FFBD0022090
:102650002346401C9842FCD3481CC1B21329EFD337
:102660006FF07F410220401C8842FCD3FEE700004F
:102670004D656D6F7279206F766572666C6F77212C
:102680000D0A00000050004002494CF6CC400860A2
:10269000704700000030004002494AF6AA20086056
:1026A000704700000030004001494860704700005A
:1026B0000030004001498860704700000030004051
:1026C00001490860704700000030004030B587B015
:1026D0000121112003F02CF90121C80403F01CF999
:1026E0004FF40060ADF8100004202A4C8DF8130060
:1026F00004A92046FFF70AFF2015ADF810000320BB
:102700008DF8120018208DF8130004A92046FFF759
:10271000FDFE00244FF416500090ADF808400C2048
:102720001D4DADF80440ADF80A00ADF80640ADF817
:102730000C406946284604F04DFA6946284604F0E4
:1027400049FA012240F22551284604F02BFA0122D1
:1027500040F22661284604F025FA0121284604F0BB
:10276000EBF94021284604F0DDF94FF4C06000F099
:10277000D5FB34208DF814008DF8154002208DF81B
:10278000160001208DF8170005A800F08DFB07B09A
:1027900030BD000000100140004C004010B586B074
:1027A0000121052003F0C4F80121880303F0C0F8DB
:1027B0004FF48060ADF8100004201C4C8DF813001D
:1027C00004A92046FFF7A2FE6015ADF81000032013
:1027D0008DF8120018208DF8130004A92046FFF789
:1027E00095FE4FF4614000900020ADF80400ADF874
:1027F0000600ADF80800ADF80C0008200C4CADF850
:102800000A006946204604F0E5F9002240F225510D
:10281000204604F0C7F90121204604F08DF940213B
:10282000204604F07FF906B010BD0000000801400A
:1028300000380140002330B49C4610F0030205D15B
:102840000AE000BF491E00F8013B521C002904BFEA
:1028500030BC7047042AF5D303293AD9B1F1004FAF
:1028600037D24A42D41702EB947292105542002D8F
:1028700013DD021F15F0010F18BF42F804CF6C10D2
:1028800006D000BFC2F804C042F808CF641EF9D1D8
:102890006A4200EB850001EB8201002904BF30BCD5
:1028A0007047B1F1004F1DD20029DCBF30BC70472A
:1028B000401E11F0010F18BF00F8013F491004BF7E
:1028C00030BC7047437000F8023F491EFAD130BC5B
:1028D00070470429E1D300BF091F40F804CB042945
:1028E000FAD2DAE700F8013B491EFBD130BC704751
:1028F0002DE9F0410D4F0E4D002005F580640126B5
:102900003860FDF735FC8046FEF73EFC05F2FF30EF
:10291000C4E90050A5603868C4E903063C60FEF7CE
:1029200043FC4046BDE8F041FDF726BCAC01002069
:10293000E48700202DE9F04FDFF84CB40746C1B022
:102940009BF80000082600258DF8000002216C4647
:102950008DF80170032F09D004DC012F18BF022F5E
:1029600013D103E0042F18BF172F0ED1BBF80400BA
:10297000010A8DF802108DF80300BBF80600010A69
:102980008DF804108DF805000621102F0AD005DC03
:10299000052F1CBF062F0F2F0BD103E0162F18BFDA
:1029A000172F06D1BBF80820100A6054481C891C58
:1029B0002254F64BF448102F1A88B0F80A804FEAD8
:1029C000122902F0FF0A4FEA122C4FEA182008F0F1
:1029D000FF024ED006DC052F09D0062F0BD00F2F9B
:1029E00010D08EE0162F7CD0172F42D089E0605493
:1029F000481C225404E0481C04F8019004F800A08C
:102A0000411C7EE06054481CDF49225418F0070F37
:102A1000498900F101004FEAD10118BF491C11F0AA
:102A2000FF02225400F1010118BF002069D0844642
:102A30006FF35E0CBCF1010F0BD010F0010F12D13F
:102A400020F0010C13F80CC004F801C0491CC9B2F5
:102A500009E020F0010C33F80CC04FEA1C2C04F8FC
:102A600001C0491CC9B2401C521E12F0FF02DED147
:102A700047E06054481C4FEA48012254401C21544E
:102A8000411C7AB3981E002218F0010F07D04B1C8E
:102A900004F801C0DBB210F8022FE2540122C8F39F
:102AA00046035BB330F802CF4FEA1C2901EB420C1E
:102AB0000CF0FF0A04F80A900CF1010A0AF0FF0A70
:102AC00010F8029B04F80A90B0F800900CF1020A8A
:102AD0000AF0FF0A4FEA192904F80A9090F80090CA
:102AE00001E058E00DE00CF1030C0CF0FF0C921C1F
:102AF0005B1E04F80C9013F0FF03D3D101EB4800E8
:102B0000C1B200234FF6FF704AF20108002915D91F
:102B1000E25C50405FF0040210F0010F14BF88EA3D
:102B20005000400810F0010F14BF88EA5000400820
:102B3000521EF1D15A1CD3B28B42E9D36054491CC6
:102B4000C9B2000A6054481C00F0FF09002004F8D4
:102B5000090000F08DF98E48016841F400410160E0
:102B60004946684600F09AF94FF0000900F04CF928
:102B70004FEA000A00F06AF948B100F059F904F888
:102B8000090009F1010000F0FF09701EC6B2B9F199
:102B9000050F0DD034E0481C04F801C004F800A073
:102BA0005988401C0A0A2254401C2154401CA7E7A3
:102BB0009DF800009BF80010884201D0E025D3E08A
:102BC0009DF8010000F07F01B94201D0E125CBE082
:102BD000C10902D09DF802503AE0062825D005DC54
:102BE0000ED2DFE800F00D0B0B0B0B190F2818BFEE
:102BF000102811D0162821D0172801D19DF8026085
:102C000000F002F9A0EB0A00B0F5FA6F88BFE225E8
:102C1000F6B1002DAED0A7E0032600F0F5F8A0EB4A
:102C20000A00B0F5FA6FF4D910E0032600F0ECF8D2
:102C3000A0EB0A00B0F5FA6FEBD907E0052600F02B
:102C4000E3F8A0EB0A00B0F5FA6FE2D9E225E0E77D
:102C5000002D74D1B9F1050F29D30022A9F1020387
:102C60004FF6FF70002B15DDA15C48405FF00401BA
:102C700010F0010F14BF88EA5000400810F0010F57
:102C800014BF88EA50004008491EF1D1511CCAB255
:102C90009A42E9DB04EB0901C2B211F8023C9A4204
:102CA00006BF11F8011CB1EB102FE3255CD19DF894
:102CB00001004FF0FF3C032838D004DC012818BF86
:102CC000022851D104E0042818BF17284CD12DE068
:102CD0009DF802300020590851D0201D00212D4AB6
:102CE0005B0801E0402905DA10F8016C077806EB73
:102CF00007261680801C491C921C5B1E13F0FF03E4
:102D0000F0D19DF8023058080CEB53018BF80310FA
:102D100013F0010F28D0402806D200BF04EB400179
:102D20001C4AC97822F81010401C1BE09DF80230A4
:102D3000580819D0E01C0021164A5B0802E013E095
:102D4000402904DA4478067804EB06241480801CB9
:102D5000491C921C5B1E13F0FF03F1D19DF8020089
:102D60000CEB50008BF8030000208BF80100ABF84F
:102D70000C008BF8020041B02846BDE8F08F13F03C
:102D8000010FCBD1F0E70000E8000020788600209A
:102D90000C080140F8850020024800214170818123
:102DA00000F038B8E800002080210148FDF74EBA55
:102DB000F885002040283ABF024931F810004FF64C
:102DC000FF707047F8850020034B18709980DA80F7
:102DD0000320FFF7AFBD0000E800002070B50446F7
:102DE0004D1E2CBF074E70BD14F8011B304603F07A
:102DF0004FFF8021304603F0A8FE0028F9D06D1E59
:102E0000F2D270BD004C004008B5684601F064F88D
:102E100008BD000010B5FFF759FC0449C822A1F114
:102E2000140004F073FF012010BD00000C87002087
:102E300010B5FF24044804F072FF18B9024804F0EA
:102E400075FF0446204610BDF8860020074810B5DF
:102E5000807C012804BF054804F052FF034804F0B9
:102E60005EFF00280CBF0120002010BDF886002066
:102E700010B5024804F044FF002010BDF886002081
:102E8000044810B50088C1B2034804F060FF002078
:102E900010BD0000044C0040F886002010B5FFF77C
:102EA0009DFF002010BD000010B4C27801784FF0E3
:102EB0000F0C012322B3184A126801F1E02102F439
:102EC000E062C2F5E062120AC2F104042CFA02F2D6
:102ED00090F801C00CFA04FC8478224042EA0C020B
:102EE000120181F80024007800F01F0103FA01F1BB
:102EF0004009800000F1E020C0F8001110BC7047CC
:102F000001F01F0003FA00F04909890001F1E021F6
:102F1000C1F8800110BC70470CED00E0034940F09F
:102F2000FD7040F080600860704700000CED00E02C
:102F30007047000002480068002808BF704700473B
:102F4000C001002030B589B0054600F0FBF86348A9
:102F5000002404706248047062480470624804608F
:102F600062480460624804706248047062480470F9
:102F700062480168A9B16249096891B10068B0F17D
:102F8000004F7DD200280CDD091F10F0010F18BF83
:102F900041F8044F401004D04C6041F8084F401EE7
:102FA000FAD15848046058480460584804605848AA
:102FB0000460584804605848046058480460584801
:102FC000047001F0AFFA574A002000BF00EB400147
:102FD00002EB8101401C0C810C60C0B24C602028C7
:102FE000F4D3284600F0B6FF288800281CBF09B09B
:102FF00030BD284601F008F8288800281CBF09B019
:1030000030BD284601F00CF8288800281CBF09B004
:1030100030BD284601F070F8288800281CBF09B090
:1030200030BD284601F0A8FA288800281CBF09B046
:1030300030BD284601F044FB288800281CBF09B099
:1030400030BD284601F0ACFD288800281CBF09B01F
:1030500030BD35483649374A04600B20CDE906407B
:10306000324808950594006809681268CDE9021095
:103070001F20CDE90002049400232F4A2F4900E0CD
:1030800026E02F4800F050FC288800281CBF09B01B
:1030900030BD284602F0F8F8288800281CBF09B087
:1030A00030BD284601F0B8FC288800281CBF09B0B4
:1030B00030BD284602F04AF9288800281CBF09B014
:1030C00030BD00F045FF09B0BDE83040FFF730BF2C
:1030D00041F8044B401EFBD163E70000D4010020FF
:1030E000DC010020020200206402002068020020AF
:1030F000F6010020F7010020F8010020DC7D000827
:10310000D87D0008B4010020B8010020BC010020D7
:10311000C0010020C4010020C8010020CC01002013
:103120002E020020249C0020D0010020D47D000825
:10313000D07D0008CC7D00086D3F0008F03F0008FE
:10314000589B0020054806490068096800EB81008B
:10315000044920F00700086070470000D87D00088F
:10316000DC7D00086C02002005480078012818BFAB
:10317000704704490878FA283CBF401C0870704723
:10318000DC010020D40100201B480078012818BF72
:10319000704710B5FCF7ECFF184904460878B0B149
:1031A000401E10F0FF00087011D11548007870B96A
:1031B00001F0A2F913490870134900EB400051F8DF
:1031C00020001249086012490968884204D120464B
:1031D000BDE81040FCF7D0BFD0F88C10491CC0F8F7
:1031E0008C100C480168491C0160FDF7F0FB20467B
:1031F000BDE81040FCF7C0BFDC010020D401002076
:1032000002020020F7010020249C00206802002018
:1032100064020020240200202DE9F04116460D46EC
:103220000446FCF7A5FF0746FDF7AEFF1148C4E9C9
:10323000000500252562656284F8285004F1080025
:10324000E56201F091F80D490B486561E06108689D
:1032500000280EBFA561A061446109480C60018887
:10326000491C0180FDF7A0FF3846FCF785FF35803B
:10327000BDE8F0814D555458CC400008F0010020C5
:10328000F40100202DE9F04F89B08A460546006818
:103290005949129E1C46914688421FBF45F6C450AC
:1032A000308009B0BDE8F08F4FF00008002C18BF47
:1032B000C4F80080FCF75CFF8346FDF765FF95F8D6
:1032C00028204E4FBAB1686A3968884232D1FF2A45
:1032D00028D0501C85F82800002C1CBFE86A20600C
:1032E000FDF762FF5846FCF747FF45F282703080D9
:1032F00009B0BDE8F08F38686862012085F82800C1
:10330000002C1CBFE86A20603868C16B2962C56365
:10331000FDF74AFF5846FCF72FFFA6F8008009B0DA
:10332000BDE8F08FFDF740FF5846FCF725FF45F25A
:103330008470DCE719F4004F07D0FDF735FF5846DD
:10334000FCF71AFF46F2B010D1E72D4A12783AB1D5
:10335000FDF72AFF5846FCF70FFF46F66350C6E715
:1033600090F8372091F837108A4288BF01F0BAFBF5
:10337000534604222946684600F0CAFEFDF714FFB2
:103380005846FCF7F9FE00F0F1F8FCF7F1FE0546AF
:10339000FDF7FAFE396891F8350088B1012816D09A
:1033A000022822D0032818BF46F62E6016D030809F
:1033B000FDF7FAFE2846FCF7DFFE09B0BDE8F08F06
:1033C000002C1CBF886C2060A6F80080F0E7002C61
:1033D0001CBF886C206046F2A910E8E7002C18BFDB
:1033E000C4F8008047F2D920E1E7002C1CBF886CAC
:1033F000206045F6C250DAE74D555458640200206B
:10340000020200202DE9F04F8B4604460068544923
:1034100083B0174688421FBF45F6C450108003B0E2
:10342000BDE8F08FFCF7A4FE0190FDF7ADFE4D4E18
:10343000606A3168884207D0FDF7B6FE0198FCF754
:103440009BFE45F2817012E0FDF71EFF8146E062AF
:1034500094F82800401E10F0FF0084F828000AD0DD
:10346000FDF7A2FE0198FCF787FE45F283703880D5
:1034700003B0BDE8F08F3068214650F83C2F8A42F7
:1034800004D0104650F8202F8A42FAD1116A016008
:10349000208A04F1080A4FF00008002851D0316852
:1034A00091F8372091F838309A422AD0D1F83CC0B0
:1034B0001F25BCF1000F11D06046DCF808C0BCF13C
:1034C000000F06D0DCF808C09CF837C0AC4538BF08
:1034D0006546D0F820C0BCF1000FEDD1AB4238BF3B
:1034E0001D46AA420DD2084601F0C0F8306880F8A7
:1034F0003750284601F01CF8306801F09DF81A4852
:103500000570DAF8000000231A4681680120616224
:1035100084F82800C86B2062CC632046CDF8009068
:1035200000F058FFFDF740FE0198FCF725FE1BF464
:10353000004F08BF00F01AF8A7F8008003B0BDE8FC
:10354000F08FC4F8248084F82880FDF72DFE0198C0
:10355000FCF712FEA7F8008003B0BDE8F08F000072
:103560004D55545864020020F60100201948007897
:10357000002818BF704718480078002818BF704707
:1035800010B5FCF7F5FD044600F0B6FF13490870CE
:10359000134900EB400051F820001249086012491D
:1035A0000968884204D12046BDE81040FCF7E4BD1C
:1035B000D0F88C10491CC0F88C100C480168491CCC
:1035C0000160FDF7FFF92046FCF7D6FDBFF36F8FD2
:1035D00010BD0000D401002002020020F7010020ED
:1035E000249C0020680200206402002024020020A5
:1035F00070B504460F48007801281EBF45F6896063
:10360000208070BD0C4D2878FA2828BF45F209208B
:103610000DD2FCF7ADFD0646FDF7B6FD2878401C3F
:103620002870FDF7C1FD3046FCF7A6FD0020208084
:1036300070BD0000DC0100200202002070B50546CC
:103640002A480078012818BF45F6896018D1284C0F
:103650002078002808BF46F6645011D0FCF788FD9A
:103660000646FDF791FD2078401E10F0FF00207007
:1036700008D0FDF799FD3046FCF77EFD46F6635015
:10368000288070BDFDF790FD3046FCF775FD1948A8
:103690000078002804BF2078002825D1FCF768FDB9
:1036A000044600F029FF14490870144900EB40005B
:1036B00051F820001249086012490968884203D174
:1036C0002046FCF759FD0FE0D0F88C10491CC0F8DB
:1036D0008C100D480168491C0160FDF773F9204604
:1036E000FCF74AFDBFF36F8F0020C9E7DC01002023
:1036F00002020020D4010020F7010020249C0020B9
:1037000068020020640200202402002070B5104DE1
:1037100004462878002818BF45F68A6001D020802A
:1037200070BD00F0E9FE0B4908700B4908700B49A9
:1037300000EB400051F82000094908600949086081
:1037400001202870FDF700F943F69920E7E7000013
:10375000DC010020F7010020F6010020249C00205D
:1037600068020020640200202DE9F0410646FCF7C3
:10377000FFFC0546FDF708FD304800240480304872
:1037800004603048046030480460304804603048C9
:103790000481FDF709FD2846FCF7EEFCFCF7E8FC88
:1037A0000746FDF7F1FC2B480568FDF7FDFC3846A0
:1037B000FCF7E2FC1DB300BFFCF7DAFC0746FDF79F
:1037C000E3FCC5F8B0406C67C5F8A440C5F88C4070
:1037D000A5F88840A5F88A40C5F89840C5F89C40EF
:1037E000FDF752FDC5F89400A5F86C40D5F8B85027
:1037F000FDF7DAFC3846FCF7BFFC002DDCD1FCF706
:10380000B7FC0746FDF7C0FC13480568FDF7CCFC84
:103810003846FCF7B1FC6DB1FCF7AAFC0746FDF792
:10382000B3FCAC85AD69FDF7BFFC3846FCF7A4FCE2
:10383000002DF1D13480BDE8F08100000E0200209F
:10384000200200203402002054020020D801002071
:10385000189C002028020020FC010020F8B5044636
:103860006946254800F04EFABDF8000000282CD12A
:103870006A460021022000F07DFABDF8000020BB5E
:10388000FCF776FC0746FDF77FFC1C4E00253560F3
:10389000FDF78AFC3846FCF76FFC194919480A689D
:1038A00003689A4202D9B2FBF3F018B91649A1FB9A
:1038B0000210C0086A46002100F05CFA69460E4812
:1038C00000F0CCF8BDF8000008B12080F8BDFCF78E
:1038D0004FFC0746FDF758FC0C480D490560306861
:1038E00008600C4901200870FDF75EFC3846FCF7C3
:1038F00043FC2580F8BD0000549F002010020020EA
:10390000007E0008EC7D0008CDCCCCCC200200204D
:10391000140200201C02002002480068002808BF92
:1039200070470047C40100202DE9FF4F83B00446D3
:10393000DDE91096DDE912A7DDE9178BB9F11F0F5C
:1039400009D13E4884421FBF46F27320ABF8000005
:1039500007B0BDE8F08F204601F032F90025ABF842
:10396000005018F0010F1CBF18F0020F002F0CD0F0
:10397000301F17F0010F18BF40F8045F790804D01A
:10398000456040F8085F491EFAD1CDE90078DDE9CD
:10399000050106EB8A0A5346324600F073F9059991
:1039A000A1620699E1620499216284F8379084F853
:1039B0003890C4F808A0206016982764666260609A
:1039C000A4F84480A56704F16000149900F068FB36
:1039D000204600F03BF8FCF7CBFB0646FDF7D4FB96
:1039E00094F8370000F0A4FD204600F025FE1449AD
:1039F000C4F8B450086800280EBFC4F8B850C4F822
:103A0000B800C0F8B4400F480C600188491C018020
:103A10000D480078012807D0FDF7C6FB07B03046F7
:103A2000BDE8F04FFCF7A8BBFDF7BEFB3046FCF746
:103A3000A3FB07B0BDE8F04FFFF798BD589B0020EF
:103A4000280200202C020020DC0100200249096825
:103A5000002908BF70470847B401002070B50C4624
:103A60000546FCF785FB0646FDF78EFBFDF79CFB44
:103A70003046FCF781FB21462846BDE8704001F046
:103A8000F9B8000002490968002908BF70470847D3
:103A9000BC0100202DE9F0471E46140089468246ED
:103AA0004FF0000718BF2760FCF762FB8046FDF768
:103AB0006BFB444D2868C16CF1B1A1F10109C0F85C
:103AC0004C90002C1CBF806C2060FDF7DDFB29684A
:103AD0008A6C801AC1F8A000D1F8A420824288BF65
:103AE0001046C1F8A400FDF75FFB4046FCF744FB1D
:103AF00037804846BDE8F08719F4004F0AD0FDF73B
:103B000053FB4046FCF738FB46F2B01030800020F3
:103B1000BDE8F0872C48007850B1FDF745FB4046E2
:103B2000FCF72AFB46F6635030800020BDE8F087A2
:103B3000002153460722084600F0EAFAFDF734FB5D
:103B40004046FCF719FBFFF711FDFCF711FB80461F
:103B5000FDF71AFB286890F8351089B1012922D0A9
:103B600003291CBF46F62E60308024D02868C46C20
:103B7000FDF71AFB4046FCF7FFFA2046BDE8F08748
:103B80007CB1806C2060FDF77FFB29688A6C801A0D
:103B9000C1F8A000D1F8A420824288BF1046C1F825
:103BA000A4003780E2E7002C1CBF806C206046F246
:103BB000A9103080DAE7002C18BF276047F2D9201F
:103BC000F7E70000640200200202002070B51446EE
:103BD0000D460646FDF758FB024623462946304669
:103BE000BDE8704001F0B6B82DE9F0471F46904699
:103BF00089460546FCF7BCFA0446FDF7C5FA002DD8
:103C000004BF1F4805680026286880B195F8440065
:103C100010F0010F17D0FDF7C7FA2046FCF7ACFAF9
:103C2000D5F824C00024DCF80000D0B11EE0FDF778
:103C3000BBFA2046FCF7A0FAC9F8006047F2521020
:103C4000C8F800600AE0FDF7AFFA2046FCF794FAE6
:103C5000C9F8006047F25410C8F800603880BDE829
:103C6000F0875CF8040F641C0028FAD0C9F8004003
:103C7000286C001BC8F800003E80BDE8F0870000FB
:103C800064020020DDF800C002EB8C0222F0070283
:103C90004FF0807C42F804CC42F8080C184842F8F7
:103CA0000C0CA2F110004FF0123C40F804C94FF088
:103CB000033240F804294FF0023240F8042940F85A
:103CC000043940F804194FF0113140F80419D100BB
:103CD00040F804194FF0093140F80419910040F8F8
:103CE00004194FF0073140F804194FF0063140F83D
:103CF00004194FF0053140F8041951000160704774
:103D0000354D0008044A904202BF47F25B1008801C
:103D1000704701F07BB80000589B0020124810B596
:103D20000068002818BF8047FDF7AEFA0F4C104A14
:103D300021681268914209D0D1F89430C31AC1F8B1
:103D40009030D1F898C06344C1F89830C2F894001C
:103D5000FDF7F4F92268D2F8B010814288BF084616
:103D6000C2F8B00010BD0000C801002064020020AD
:103D7000680200202DE9F041064620480D46144611
:103D8000007800281EBF46F663501080BDE8F08121
:103D9000002D18BF022D09D0042D0CD0082D18BFFE
:103DA00045F6256002D01080BDE8F081002E08BFE6
:103DB00047F27E20F7D0FCF7DBF90746FDF7E4F980
:103DC0002A460F4D23463146286801F0D3F8208853
:103DD00030B1FDF7E9F93846BDE8F041FCF7CCB960
:103DE000286800F043FCFDF7DFF93846FCF7C4F91A
:103DF000FFF7BCFB00202080BDE8F081020200201C
:103E0000640200202DE9F041304D9C46DDE9063486
:103E10002D78002D1EBF46F663502080BDE8F0814E
:103E200013F00E0547F27E2718BF022D06D0042D91
:103E30000DD0082D18BF45F6256040D1BCF1000F0C
:103E400008BF002A03D1002908BF00283AD0204B20
:103E50004FF4FA76C1EB01111B68B6FBF3F6B444DC
:103E60000CFB03FC4FF47A76BCFBF6FC4FF4616666
:103E7000704300EB8100104400FB03C616B3FCF74F
:103E800077F90746FDF780F92A46124D2346314659
:103E9000286801F06FF8208830B1FDF785F93846C1
:103EA000BDE8F041FCF768B9286800F0DFFBFDF7DA
:103EB0007BF93846FCF760F9FFF758FB00202080BB
:103EC000BDE8F0812780BDE8F081000002020020FB
:103ED000007E00086402002070B50446FCF748F933
:103EE0000646FDF751F905480568FDF75DF93046CE
:103EF000FCF742F900202080284670BD30020020E7
:103F000008B500F01DF86A4600210948FFF75EFE7B
:103F100008480168491E016018BF08BD06496A4685
:103F20000968016000210548FFF750FE08BD000048
:103F3000649E0020600200205C020020549F00204C
:103F400002480068002808BF70470047CC010020E5
:103F500070470000034A00211160034A118001806C
:103F600070470000E0010020E40100200A4C0B4DE6
:103F7000FCF7FEF80646FDF707F92068411C2160B2
:103F80002868401C2860FDF70FF93046FCF7F4F86C
:103F9000FEF7D0FFECE70000D00100201002002067
:103FA00000B50E4A89B0002111600B2205910691DF
:103FB000CDE907200A480B4A0B4B006812681B68C2
:103FC0000292CDE903011F20CDE900030023074A37
:103FD00007A10C48FFF7A8FC09B000BDD0010020E4
:103FE000D47D0008D07D0008CC7D00086D3F00081E
:103FF00075432F4F532D4949492049646C6520541E
:1040000061736B00589B0020034A00211160034A32
:104010001180018070470000E8010020EC010020C1
:104020002DE9F00FDFF870B0DFF868A0BBF80010E2
:10403000DAF80020491E0E0402F11007360C4FF08A
:10404000000116D002F1080402F10C0C00233546E1
:1040500002EB031807EB0319C8E900915B1C6D1E06
:1040600024F8101B2D044CF8101B2D0CF0D102EB82
:104070000612116051601181D160084ADAF80030EF
:104080001360BBF800309380D18011810180BDE8BE
:10409000F00F7047E47D0008E07D0008189C0020C8
:1040A00001810021418181810160416070470000F0
:1040B0000022074B05A14261C161196800290EBFAA
:1040C0008261816148611860704700002000000033
:1040D000F0010020C26B1F215AB1104692682AB12C
:1040E000926892F837208A4238BF1146026A002A45
:1040F000F3D1084670470000034A00211160034ACB
:104100001180018070470000F0010020F4010020C0
:104110002DE9F041DFF8308100260F46D8F8005035
:10412000044685F8342085F835601A0008BF02205F
:1041300004D02946454800F0DBFE032085F8360010
:1041400095F83700424900EB400001EB8001D5E9CA
:10415000032000282CD00B895B1E0B81C260002A33
:104160000CBF486010612E61EE60002F48D0E76000
:10417000D8F80000012207F10801A0F846200463E6
:1041800066602660266166612683E661A06090F81D
:104190003720388AD8B1401C0881086850B383683A
:1041A00093F83730934218D840680028F7D121E0BF
:1041B0002AB10889401E088116610A60D3E70E8182
:1041C0000E604E6095F8370000F0C4F9CBE701208F
:1041D0000881666026600C6010E058B10268002A11
:1041E0001CBFC4E900205460046004BFC4E900603F
:1041F0000C600AE066604868206044604C6004E03F
:10420000D8F80000A0F846600663D8F8000047B16F
:104210007968C0F8BC10B8688068006AF861BDE8C9
:10422000F08190F83410022908BF0A4907D0072905
:104230001BBF0949C0F8BC100849BDE8F081C0F8AF
:10424000BC10BDE8F08100006402002040020020A4
:10425000249C0020944200089C420008A0420008D0
:1042600038B14268C1F8BC2081688968096AC161B7
:10427000704791F83400022808BF06A006D007282E
:104280001BBF06A0C1F8BC0005A07047C1F8BC0068
:10429000704700005461736B205100002000000043
:1042A0005461736B2053656D0000000070B4B0F86A
:1042B0004640016B002C19BF0126002570BC7047D9
:1042C000C86800F1080C008A012838D9086818B3BA
:1042D0004A68002A07BF4560CCF8040042601060BD
:1042E000BCF80800401EACF808004D600D608868FE
:1042F00090F83720BCF8080098B1401CACF80800D2
:10430000DCF8000010B3836893F8373093420FD87D
:1043100040680028F7D119E048680560CCF8000033
:10432000DEE7ACF808604D600D60CCE9001106E0F6
:1043300060B1026892B1C1E9002051600160601E65
:1043400020310404240CBBD170BC70474D60DCF8F4
:10435000040008604160CCF80410F0E701600D60D3
:104360004860CCF80010EAE700210160416001815B
:10437000704730B4B0F84630026B4FF0000CF3B128
:10438000D1680C8A0831012C04BFC1F800C0C1F803
:1043900004C009D01468C4B15568002D07BFC4F823
:1043A00004C04C6065602C600C89641E0C81591E31
:1043B000C2F804C00B0442F820CB1B0CE0D1A0F8DB
:1043C00046C0C0F830C030BC70475468C4F800C064
:1043D0000C60E9E72DE9F0470D46044695F83600F4
:1043E00000260899082828BFBDE8F087DFE800F01C
:1043F0002A2A04042A2A444495F83400032823D0A6
:10440000AA65A5F85C30A96464B12846FFF7B1FF3E
:104410003848C5F8BC00A06800280EBF3548806841
:10442000006AE06195F83600032804BF284600F0D2
:1044300023FE284600F0ACF885F8366085F8356034
:1044400085F83460BDE8F087B5F846C0286BBCF14C
:10445000000FD9D00127BCF1010FD5DBD0F80C90AB
:10446000A14504D1C0E904420383C161CCE72030F7
:104470007F1C6745F2DDC7E795F83400032821D09B
:10448000AA65A5F85C30A96464B12846FFF771FFFE
:104490001848C5F8BC00A06800280EBF1548806801
:1044A000006AE06195F83600072804BF284600F04E
:1044B000E3FD042085F8360085F8356085F8346022
:1044C000BDE8F087B5F846C0286BBCF1000FDBD023
:1044D0000127BCF1010FD7DBD0F80C80A04504D137
:1044E000C0E904420383C161CEE720307F1C6745E9
:1044F000F2DDC9E79C420008094810B501680024B4
:1045000039B900BF04F12001CCB250F8041F0029D2
:10451000F8D00846FBF737FE2044C0B210BD0000BB
:10452000B00100200149002008607047B001002060
:10453000410900F01F000122C0F11F0002FA00F043
:10454000034A52F82130184342F821007047000016
:10455000B0010020410900F01F000122C0F11F003E
:1045600002FA00F0034A52F8213023EA000042F830
:1045700021007047B0010020034A00211160034A66
:104580001180018070470000FC0100200002002023
:1045900010B5044690F83700FFF7CAFF164994F8A3
:1045A0003700012291F800C00021144B604500EB58
:1045B000400003EB800003890DD13BB15A1C0281FE
:1045C000E16041682161CC60446010BD0281E1601E
:1045D00021610460F8E743B15A1C02810268C4E912
:1045E000032101680C61046010BD0281E16021615A
:1045F0000460446010BD0000F6010020249C0020EF
:1046000090F837100B4A01EB410102EB81010022C7
:104610000B8943B15B1C0B810B68C0E903320A684C
:1046200010610860704701230B81C260026108605D
:1046300048607047249C002090F837100A4A01EB2C
:10464000410102EB810100220B893BB15B1C0B8114
:10465000C2604A680261D0604860704701230B81E4
:10466000C26002610860F7E7249C002070B5044630
:1046700090F83700114900EB400001EB8001D4E9CC
:104680000302002552B10B895B1E0B81D06000280C
:104690000CBF4A6002612561E56070BD28B10A89DE
:1046A000521E0A8105610860F5E70D810D604D60BD
:1046B00094F83700FFF74EFFEDE70000249C002040
:1046C000034A00211160034A1180018070470000F5
:1046D0000402002008020020BA4DBB4E84B02878A6
:1046E00001281CBF3068440007D020466A460021DC
:1046F000FFF740FB28780128F7D16846FFF734F828
:10470000B24932680868904203D9B0FBF2F00190D8
:1047100028B90868AE49A1FB0010C0080190DFF875
:10472000B4A2DFF8B48242F2107900BFFCF7ACFD0E
:104730008346FCF719FDCAF80000FBF719FD054692
:10474000FCF722FDA548A64C002701682160076000
:10475000FCF72AFD2846FBF70FFDA24823680168F5
:1047600099429CBFA04807802BD9A048884284BFAB
:1047700042F21070012215D89D48884284BF4FF440
:104780007A700A220ED89B48884284BF6420024671
:1047900008D89948814239BF0A204FF47A72012023
:1047A00042F21072B1FBF2F15843B0FBF1F08E49C6
:1047B000A9EB000080B2088090490A88824238BF85
:1047C0000880FFF7A9F80024FBF7D2FC0646FCF7A7
:1047D000DBFCD8F80050FCF7E7FC3046FBF7CCFCDC
:1047E000002D3FD0FBF7C4FC0646FCF7CDFCD5F806
:1047F0009800C5E92670FCF7D7FC3046FBF7BCFCF7
:10480000D5F89C000444FBF7B3FC0646FCF7BCFC5F
:10481000D5F8B850FCF7C8FC3046FBF7ADFC002DCE
:10482000E0D1FCB1714884423CBF42F210750120D6
:1048300015D36F4884423CBF4FF47A750A200ED3DB
:104840006C4884423CBF6425284608D36A488442A9
:1048500039BF0A254FF47A70012542F21070B4FB7B
:10486000F0F601E000250126FBF782FC0290FCF740
:104870008BFCD8F80040FCF797FC0298FBF77CFC17
:104880003CB300BFD4F89C006843B0FBF6F080B2A4
:10489000484588BF42F21070A4F88800B4F88A1026
:1048A000814238BFA4F88A006B4604F1A802111DAA
:1048B0002046FFF799F9FBF75BFC0290FCF764FCDC
:1048C000D4F8B840FCF770FC0298FBF755FC002CBC
:1048D000D8D14B480178012964D10770FBF748FC17
:1048E0000446FCF751FC45480780464807604648A7
:1048F0000760464807604648CAF800700781FCF721
:1049000053FC2046FBF738FCFBF732FC0546FCF76E
:104910003BFCD8F80040FCF747FC2846FBF72CFC92
:104920001CB300BFFBF724FC0546FCF72DFCC4F8C4
:10493000B0706767C4F8A470C4F88C70A4F888706D
:10494000A4F88A70C4F89870C4F89C70FCF79CFCBA
:10495000C4F89400A4F86C70D4F8B840FCF724FCB8
:104960002846FBF709FC002CDCD1FBF701FC0546CF
:10497000FCF70AFC27480468FCF716FC2846FBF7FE
:10498000FBFB6CB1FBF7F4FB0546FCF7FDFBA785D1
:10499000A469FCF709FC2846FBF7EEFB002CF1D1DB
:1049A000ADF80070FCF770FC1649A0EB0B000A682C
:1049B000824205D36A4600210198FFF7DBF9B5E68C
:1049C0000860F7E71C020020EC7D0008007E00086C
:1049D000CDCCCCCCD8010020280200201002002031
:1049E00018020020140200200C020020801A060089
:1049F00000093D00005A62020084D7170E02002011
:104A00000A0200202002002034020020540200206C
:104A1000189C0020FC010020214A00211160214A3D
:104A20001160214A1160214A1170214A1170214AF6
:104A30001368002B02BF46F62B610180704710B54A
:104A40008AB01D4B1D4CD3F800C02468644588BF54
:104A500046F62C6108D8DFF868C09CF800401F2C8F
:104A600028BF46F62A6102D301800AB010BD032494
:104A700005910691CDE9074012481B68126800684D
:104A8000CDE90120CDE903319CF80000009000231E
:104A90000D4A0EA11248FEF747FF0AB010BD0000F4
:104AA0001002002018020020140200201C02002026
:104AB0000A020020F07D0008F87D0008FC7D000857
:104AC000E87D0008F47D0008D946000875432F4FA3
:104AD000532D4949492053746174205461736B000C
:104AE000A49D002070B50C464FEA000595F83600ED
:104AF00095F83760082828BF70BDDFE800F004197A
:104B00001C1C19191C1C2846FFF7B0FD85F83740FE
:104B10002046FFF70DFD214800688542284603D155
:104B2000BDE87040FFF76CBDBDE87040FFF784BD85
:104B300085F8374070BD85F8374095F83400072870
:104B400028BF70BDDFE800F0040504050A05050074
:104B5000F0E72846BDE87040FFF7A8BB2846FFF7FE
:104B6000A5FB286BA642C068456A95F8370003D9B3
:104B7000A04298BF70BD0EE0B0420CD12846FFF7AE
:104B8000A9FA95F83840844228BF044695F83700C2
:104B9000A04208BF70BD002DA8D170BD64020020E6
:104BA000044A00211160044A1180044A1160018006
:104BB00070470000280200202C0200202402002060
:104BC00070B50025056085604560C560056145617B
:104BD0000446856124A0C4E907506562A562E562C8
:104BE0002563A4F84650A564A565A4F85C5000218F
:104BF00004F16000FFF754FA25676567E567A4F8DC
:104C00008450C4F88050A567E564C4F8A050C4F887
:104C1000A450256484F88650C4F8AC50C4F8A85059
:104C2000A4F8445025656565A4F88850A4F88A5016
:104C3000C4F88C50C4F89050FCF726FBC4E9250555
:104C4000C4F8B05084F8345084F8355084F83650A5
:104C5000202084F8370084F83800E56304A0C4F805
:104C6000B450C4E92E5070BD3F5461736B00000016
:104C70002000000070B50D460446FBF779FA0646A1
:104C8000FCF782FA0020288094F83610082948D2D0
:104C9000DFE801F0040404040D1B2633FCF784FA5A
:104CA0003046FBF769FA47F25310288035E094F854
:104CB0008610491E11F0FF0184F8861028D184F86F
:104CC00036002046FFF764FC22E094F88600401E80
:104CD00010F0FF0084F8860008BF012018D109E019
:104CE00094F88600401E10F0FF0084F8860008BF8C
:104CF00002200DD184F836000AE094F88600401EA8
:104D000010F0FF0084F8860004BF032084F836000A
:104D1000FCF74AFA3046FBF72FFABDE87040FEF781
:104D200025BCFCF741FA3046FBF726FA46F62D6023
:104D3000288070BD054882B00068FEF7A3FE044CD1
:104D40006A4600212068FFF715F8F9E764020020A1
:104D5000007E00082DE9F8431D46164689460446A4
:104D6000FBF706FA0746FCF70FFA002C04BF2648AB
:104D70000468002046F6C558A664288094F83600DA
:104D8000082835D2DFE800F0040408080404080805
:104D9000E06C411C22D006E094F8340007280AD0C9
:104DA000E06C411C1AD00D46E164FCF7FDF9384671
:104DB000FBF7E2F925E000231A4621461846009643
:104DC000FFF708FBE56CFCF7EFF93846FBF7D4F981
:104DD00019F4004F08BFFEF7C9FB12E0FCF7E4F935
:104DE0003846FBF7C9F9A5F800800020BDE8F88334
:104DF000FCF7DAF93846FBF7BFF946F62D60288054
:104E000000252846BDE8F8836402002070B50D46F1
:104E10000446FBF7ADF90646FCF7B6F93248002C1C
:104E200008BF0468006884420AD13048007838B16D
:104E3000FCF7BAF93046FBF79FF946F6635050E0AD
:104E40000020288094F836100120082942D2DFE89B
:104E500001F004121D2833333333042184F8361053
:104E600084F886002046FFF701FCFCF79DF93046E8
:104E7000FBF782F92AE0052184F8361084F88600D1
:104E8000FCF792F93046FBF777F91FE0062184F82A
:104E9000361084F88600FCF787F93046FBF76CF98A
:104EA00014E0072184F8361084F88600FCF77CF9BA
:104EB0003046FBF761F909E094F88600401C84F85D
:104EC0008600FCF771F93046FBF756F9BDE87040F3
:104ED000FEF74CBBFCF768F93046FBF74DF946F698
:104EE0002D60288070BD00006402002002020020B6
:104EF00010B40368002433B94C610A65C1E9064067
:104F00000160012133E0D3F850C0944521D3D3F898
:104F100018C04B61BCF1000F0A650CD0C1E906C096
:104F20001C6DA21A1A659961CCF814108188491C6D
:104F3000818010BC7047C1E90640D3F850C0ACEB8B
:104F400002021A65996101608188491C818010BC48
:104F50007047A2EB0C029C465B69002BD3D14C61DD
:104F60000A65C1E906C0CCF814108188491C81800B
:104F700010BC7047F0B4DFF8F8C0002447F27E267A
:104F8000DCF80050042A07D0082A11D000290CBFF1
:104F900004658C462DD01EE0A1EB050C1CF5803F6E
:104FA00002D8BCF1000F16D104651E80F0BC70471A
:104FB000476DEA1B8A4284BF8C4605EB0C0109D879
:104FC000A1EB020C1CF5803F0CD8BCF1000F18BF00
:104FD000394407D041652749012580F836500A68D1
:104FE00052B111E0B2FBF1F201FB02721144C0E9CF
:104FF00014411E80F0BC7047C0F850C04461C0E945
:10500000064108608D8030E0156D65451ED39569B9
:10501000C0F850C0426165B1C0E90651166DA6EBFB
:105020000C0CC2F850C0906168618888401C888070
:105030001BE0C0E90641156DA5EB0C0CC2F850C091
:10504000906108608888401C88800EE0ACEB050CFD
:1050500015465269002AD7D1C0F850C04461C0E952
:10506000065168618888401C88801C80F0BC7047AD
:10507000300200203802002010B4D0E9051C0022C4
:10508000C369BCF1000F13D0CCF8141039B1C1F8CA
:1050900018C0D1F850C0046DA444C1F850C082615A
:1050A0009988491E998042610265C26110BC7047AF
:1050B00079B18A61D1F850C0046DA444C1F850C0E0
:1050C00019609988491E998042610265C26110BCCD
:1050D00070471A609A800265C26110BC7047000078
:1050E00082B04FF0030B002500226B46114610469C
:1050F000FEF7D0FCBDF800000028F5D1FBF738F82A
:105100000446FCF741F85C490A68521C0A60FCF747
:105110004BF82046FBF730F8FBF72AF88246FCF7FD
:1051200033F8FCF7B1F8554E80460027346804B3D5
:10513000206D401E206508BF4FF0040919D1781C6E
:1051400087B294F83600012804D0052808BF84F8F7
:10515000369004E084F836502046FFF719FA646967
:1051600034601CB3B088401EB080A561206D00285B
:10517000E5D0F780FCF788F8A0EB0809FCF714F8F5
:105180005046FAF7F9FFFAF7F3FF0190FBF7FCFF3F
:10519000FCF77AF83A4F82464FF000083C68002C42
:1051A00053D0206D401E206502D04EE0B580E0E770
:1051B00008F101001FFA80F894F834000026042852
:1051C00002D1206BC068466AA565A4F85C50FCF764
:1051D0005BF8A0642046FFF7CCF894F8360003286B
:1051E00005D0072804BF042084F8360004E02046D8
:1051F000FFF7CEF984F8365084F835B084F834508F
:10520000CEB196F8370096F83810884213D094F84B
:10521000371088420FD13046FEF75CFF014696F802
:105220003800884238BF014696F8370088421CBFD4
:105230003046FFF757FC64693C60CCB1B888401E2B
:10524000B880A561206D0028B2D0A7F80680FCF7D1
:105250001BF8A0EB0A04FBF7A7FF0198FAF78CFFF5
:10526000084909EB04000A6890427FF63DAF01E06F
:10527000BD80EAE7086037E73002002038020020EE
:105280004002002034020020214A0021224B1160FC
:10529000204A116019609180D1809980D9801F4B7C
:1052A0001A68002A02BF47F212210180704710B528
:1052B0008AB0DFF86CC01B4CDCF8002024689442F4
:1052C00088BF47F2132106D8174A14781F2C28BF2D
:1052D00047F2112102D301800AB010BD0B240591C1
:1052E0000691CDE90740DCF80000DFF840C01B68FC
:1052F000DCF800C0CDE90301CDE9013C1078009055
:1053000000230B4A0BA11048FEF70EFB0AB010BD9C
:10531000300200203802002040020020087E0008F1
:10532000107E0008FC7D0008047E00080C7E00084A
:10533000E150000875432F4F532D494949205469C6
:10534000636B205461736B00649E002030B505468A
:105350002D4889B0002404602C482E492E4A046050
:105360002B4804800B682D48002B19BF1268B2FB34
:10537000F3F111682A4A04BFA2FB0121C9080160A8
:10538000084628492A460860274829A1046027487A
:1053900004602B48FDF740FF288800281CBF09B097
:1053A00030BD28480168002901BF47F247302880F6
:1053B00009B030BD2449254B0A681B68934288BF59
:1053C00047F2483006D8224A13781F2B28BF47F2ED
:1053D000463002D3288009B030BD0B23CDE9064307
:1053E0001C4B089505941B6809680068CDE901030A
:1053F000CDE90314107800900023174A17A11D4827
:10540000FEF792FA09B030BD480200205002002099
:105410004C020020187E0008007E00085C0200207C
:10542000CDCCCCCC600200205802002054020020D9
:105430004F5320546D72204D757465780000000044
:10544000249F00201C7E0008247E0008FC7D0008AC
:10545000147E0008207E00087954000875432F4F01
:10546000532D4949492054696D6572205461736B0D
:1054700000000000549F0020DFF8C0A0304EDFF88D
:10548000C48088B000274FF0030B002104AB05AAAD
:105490000846FEF7FFFA01A80022009002AB114671
:1054A0002948FDF7EFFEFBF7EFFE8146DAF8000032
:1054B000401CCAF800003468002C2FD004A8FEF766
:1054C00097F8A1692069491E0546A16120D1A18CE8
:1054D000022904BF206AA06115D03168A14204D11D
:1054E0003060002818BF476104E061690028086146
:1054F00018BF416127616761B8F80000401EA8F835
:10550000000084F826B0A26812B12046E1689047F6
:105510002C4604A8FEF792F8002CCFD1FBF7B4FE7E
:10552000A0EB0901094802688A4205D36A460021B6
:105530000548FDF767FFA8E70160F7E7580200207C
:10554000500200204C020020249F00205402002022
:1055500000B512A085B0D0E90010CDE9001011A16E
:10556000D1E90001CDE902016846FAF78CFE014657
:10557000684601F091FB4FF4967002F08BF802A898
:10558000FCF7ACFF002804BF05B000BDFBF760FDD1
:1055900006A001F0EBFB05B000BD000011030C02FA
:1055A0001EC0000016020C02DA000000BFAAC6F4FA
:1055B000B2E2C1BFB3C9B9A6A3A10D0A00000000A1
:1055C00030B52F4885B0002404804FF480712D48F9
:1055D000FAF73CFE0121092000F0AAF90121880414
:1055E00000F09AF94FF40060ADF810000420264D49
:1055F0008DF8130004A92846FCF788FF2815ADF89C
:10560000100003208DF8120018208DF8130004A953
:105610002846FCF77BFF4FF416500090ADF8084089
:105620000C201A4DADF80440ADF80A00ADF8064064
:10563000ADF80C406946284601F0CCFA012240F250
:105640002551284601F0AEFA0121284601F074FAEE
:105650004021284601F066FA4FF4C060FDF75EFC79
:1056600027208DF800008DF8014001208DF8020000
:105670008DF803006846FDF717FC05B030BD00004B
:10568000E6000020F8840020000C014000480040A3
:10569000F0B55CA191B0D1E90001CDE90D015BA1AC
:1056A000D1E90001CDE90F010DA8FCF723FF594D09
:1056B000002800F098800DA9574800F0CEFD001D8D
:1056C000C4B2214655A001F051FB534820440024A8
:1056D0004678002E1CBF90F802C0BCF1000F66D0C7
:1056E000C378002B1CBF0279002A60D041790029C1
:1056F0001CBF807900285AD04A4F303E7E4340F28A
:1057000071270CFB07FC06EB0C1C03EB4306C6EBF6
:10571000C3130CEBC30302EBC20C0CEB021203EB42
:10572000820201EB810102EB41010844A0F5022055
:10573000A0F5547068623CA1684601F027FB6846FA
:10574000FAF7A1FD0146684601F0BCFA0094019405
:10575000029403940494059406940794384808949A
:1057600009940A940B940C94696A01600A214160BF
:1057700001460222334800F04FFC33A168466A6AB2
:1057800001F004FB6846FAF77EFD0146684601F029
:1057900099FA009401940294039404940594069455
:1057A0000794089409940A940B940C9417E02CA184
:1057B000684601F0EBFA6846FAF765FD014668466F
:1057C00001F080FA009401940294039404940594E7
:1057D00006940794089409940A940B940C94FBF78C
:1057E00045FC11B0F0BD0FA8FCF784FE002804BFF3
:1057F00011B0F0BDFBF73AFC1FA0696A01F0B6FAE0
:1058000011B0F0BD726974653A00000072656164A0
:10581000000000000C00002058100020693D2564A5
:105820000D0A0000A0860100B1E0BAC5D0B4C8EBF3
:10583000D6D0C7EBC9D4B5C82E2E2E0D0A00000055
:105840003800002000000208D0B4C8EBB3C9B9A6E4
:1058500021B1E0BAC5CEAA3A25640D0A00000000C5
:10586000BBF1C8A1B4EDCEF3C7EBD6D8D0C2CAE421
:10587000C8EB0D0A000000004445564943455F4906
:10588000443A25640D0A000070B51D4C002240F218
:105890002551204601F086F91A4A0021505C422821
:1058A00003D1501840784D280BD0481C81B2E02914
:1058B000F4D32046BDE87040012240F2255101F0AA
:1058C00071B95018104DC18849BA2980008940BA71
:1058D0006880FAF745FE4FF066320C4BFAF7CCFDC4
:1058E00000220B4BFAF721FDFAF747FE0949A88081
:1058F000002008804FF480710248FAF7A7FCD8E72F
:1059000000480040F8840020780D00206666E63FDD
:105910000000E03FE6000020044A0029D16914BFDE
:10592000084321EA0000D0617047000000100240E7
:10593000044A0029916914BF084321EA00009061DC
:105940007047000000100240254910B44A6812F068
:105950000C03244A18BF042B01D0082B01D002608D
:1059600015E04A684B6802F470124FF0020C13F411
:10597000803F0CEB924203D04B6813F4003F03D0FE
:10598000194B5A43026002E0164B5A4302604A68C0
:105990000F2303EA1212154B9A5CD0F800C02CFAC0
:1059A00002F24260D1F804C0072404EA1C2C13F868
:1059B0000CC022FA0CFCC0F808C0D1F804C004EAFC
:1059C000DC2C13F80C30DA40C2604968032303EA88
:1059D0009131074B595CB2FBF1F1016110BC70478A
:1059E0000010024000127A0000093D007C010020F6
:1059F00078010020F0B50646012187B04804FFF782
:105A00008BFF01210420FFF793FF0424ADF8104021
:105A100003258DF812501820204F8DF8130004A98B
:105A20003846FCF773FD0820ADF810008DF81250D1
:105A30008DF8134004A93846FCF768FD0020ADF846
:105A40000400ADF80600ADF80800ADF80C000C201D
:105A5000134CADF80A0000966946204601F0BAF8EA
:105A60000121204601F068F84021204601F05AF853
:105A7000012240F22551204601F094F826208DF8AD
:105A8000140002208DF815008DF8160001208DF805
:105A9000170005A8FDF708FA07B0F0BD000801409F
:105AA000004400402DE9F04105004FF000041CBF08
:105AB0000026154F22D03E8080211448FAF7C6FBFD
:105AC00013A000F06DFA642001F0E4FD0F48FAF72E
:105AD000DAFB01460D4801F00BF910A10B48FAF76B
